:020000001628C0
:0E0006008312031331088A00300882000800BC
:1000140003208A110A128000840AB00A0319B10A63
:08002400F003031D0A28080087
:10002C00033083120313A000A1010930A200A30125
:10003C000330A400A5010330A600A701A801A90163
:10004C001030AA00AB012030AC00AD013030AE0056
:10005C00AF01073083169F00860187018801FF30AE
:10006C0085008312851C2129FF3088000330A000F5
:10007C000030A10080302106F00080307002031D9A
:10008C00492800302002031C20290930A20000302E
:10009C00A30080302306F00080307002031D582826
:1000AC0000302202031C1B298518662886010330A8
:1000BC00A4000030A5000330A6000030A7001B29C7
:1000CC002008F0002108F100F00DF10D70107008FF
:1000DC00283E840022080007F100840A0008031857
:1000EC00013E2307F20000307206031D7F283930D1
:1000FC007106031D822816292008F0002108F10042
:10010C00F00DF10D70107008283E840022080007D5
:10011C00F100840A00080318013E2307F200803026
:10012C00F000803072067002031D9E287108353C69
:10013C000318A32811308700FC282008F0002108A0
:10014C00F100F00DF10D70107008283E84002208AB
:10015C000007F100840A00080318013E2307F2008F
:10016C0000307206031DBC2834307106031DC128F3
:10017C0021308700FC282008F0002108F100F00D48
:10018C00F10D70107008283E840022080007F10061
:10019C00840A00080318013E2307F200003072069F
:1001AC00031DDA2823307106031DDF280A3087006F
:1001BC00FC282008F0002108F100F00DF10D701062
:1001CC007008283E840022080007F100840A000809
:1001DC000318013E2307F20000307206031DF828B5
:1001EC0020307106031DFC280C3087002008F0001D
:1001FC002108F100F00DF10D70107008283E8400FC
:10020C002208000786000230FB000430FC00BA30E4
:10021C00FD00FD0B0F29FC0B0F29FB0B0F29000018
:10022C000130A202031CA3034F280130A002031CBF
:10023C00A1034028782905184D2903308800803007
:10024C002506F00080307002031D2E290030240298
:10025C00031C46290A308700240886000230FB0064
:10026C000430FC00BA30FD00FD0B3A29FC0B3A2996
:10027C00FB0B3A2900000130A402031CA50325291D
:10028C000C3087000330A6000030A7007829051C2D
:10029C0078290C30880080302706F00080307002FE
:1002AC00031D5A2900302602031C722911308700C5
:1002BC00260886000230FB000430FC00BA30FD003A
:1002CC00FD0B6629FC0B6629FB0B6629000001302F
:1002DC00A602031CA7035129213087000330A40078
:0802EC000030A5003728792934
:02400E004A2F37
:00000001FF
